:020000040800F2
:100000000010002081040008C9040008C904000889
:10001000C9040008C9040008C90400080000000061
:10002000000000000000000000000000C9040008FB
:10003000C904000800000000C9040008FD0200080F
:1000400000000000000000000000000000000000B0
:1000500000000000000000000000000000000000A0
:100060000000000000000000000000000000000090
:100070000000000000000000000000000000000080
:100080000000000000000000000000000000000070
:100090000000000000000000000000000000000060
:1000A0000000000000000000000000000000000050
:1000B0000000000000000000000000000000000040
:1000C0000000000000000000000000000000000030
:1000D0000000000000000000000000000000000020
:1000E0000000000000000000000000000000000010
:1000F0000000000000000000000000000000000000
:1001000000000000000000000000000000000000EF
:1001100000000000000000000000000000000000DF
:1001200000000000000000000000000000000000CF
:1001300000000000000000000000000000000000BF
:1001400000000000000000000000000000000000AF
:10015000000000000000000000000000000000009F
:10016000000000000000000000000000000000008F
:10017000000000000000000000000000000000007F
:08018000000000000000000077
:1001880010B5064C2378002B07D1054B002B02D065
:10019800044800E000BF0123237010BD00000020C8
:1001A80000000000A0060008044B10B5002B03D087
:1001B8000349044800E000BF10BDC046000000002D
:1001C80004000020A006000802B47146490849004E
:1001D800095C49008E4402BC7047C04600224308AF
:1001E8008B4274D303098B425FD3030A8B4244D3F7
:1001F800030B8B4228D3030C8B420DD3FF22090239
:1002080012BA030C8B4202D31212090265D0030BF7
:100218008B4219D300E0090AC30B8B4201D3CB03ED
:10022800C01A5241830B8B4201D38B03C01A52412F
:10023800430B8B4201D34B03C01A5241030B8B4231
:1002480001D30B03C01A5241C30A8B4201D3CB021C
:10025800C01A5241830A8B4201D38B02C01A524101
:10026800430A8B4201D34B02C01A5241030A8B4204
:1002780001D30B02C01A5241CDD2C3098B4201D31C
:10028800CB01C01A524183098B4201D38B01C01A9A
:10029800524143098B4201D34B01C01A5241030911
:1002A8008B4201D30B01C01A5241C3088B4201D3C0
:1002B800CB00C01A524183088B4201D38B00C01A6D
:1002C800524143088B4201D34B00C01A5241411A94
:1002D80000D20146524110467047FFE701B50020A1
:1002E80000F006F802BDC0460029F7D076E770474F
:1002F8007047C046034B1A68002A02D01A68013AB0
:100308001A6070471C00002000221F4B70B51A604D
:1003180001321C681442FCD11A6001221C68144284
:10032800FCD001225242DA6109329C691442FCD0A5
:10033800DA619A69D20321D404250400134A1560AE
:10034800261A8E420DDB20209969014202D11168DC
:100358000029F9D11268002A13D020220020DA617E
:1003680070BD9E692E4202D11668002EF9D116681A
:10037800002E06D05E6A26700134E1E70120404273
:10038800EEE70220FBE7C046005400401C000020B6
:10039800802307B52E4A9B0251690B435361D169EB
:1003A8002C4B0B43D3619023DB0518682A49014382
:1003B80019608821186A4905014319628821586A19
:1003C800C90001435962C0215868C90001435960F6
:1003D800A021D86849030143D96080235169DB0310
:1003E8000B4353611D4B1E481A681A600522D968D1
:1003F8000A43DA60032280211B69090213402C3367
:100408005B000B43023A83600260164B1648986102
:1004180011201862596415491548D9625A61803209
:100428001A60144A5160C021036A09061B021B0A9C
:100438000B4303620023936007331360042101A870
:10044800FFF762FF0028F9D101A800F0E1F8F5E70D
:1004580000100240020020005598280000140048AF
:100468000054004000040040686800003F1F00007E
:1004780000ED00E010E000E0002103E00B4B5B58CA
:10048800435004310A480B4B42189A42F6D30A4AA1
:1004980002E0002313600432084B9A42F9D300F0BB
:1004A80011F800F0D5F8FFF773FFFEE7C006000863
:1004B8000000002000000020000000202000002094
:1004C800FEE700000121114B11481A680A431A601F
:1004D8005A6802405A601A680E4802401A601A6840
:1004E8000D4802401A605A680C4802400F205A60B2
:1004F800DA6A8243DA621A6B094802401A635A6B55
:100508008A435A6300229A607047C046001002402E
:100518000CB8FF08FFFFF6FEFFFFFBFFFFFFC0FF61
:10052800ECFEFFFF0F4B70B504000F4D984215D835
:10053800002806D0132805D90C4B98420FD807235A
:1005480001E001247C23AB62A96A09480131FFF765
:1005580045FE2100FFF742FEE86270BD1C00002343
:10056800F1E7C0468038010000040040E7030000BE
:1005780000127A0030B50400042921D8080090231D
:100588000425DB052149FFF71FFE0313222F3C003A
:100598009D61002C05D102229A61013A9A614C634F
:1005A8000EE008229A6138329A6100238B6307E0D3
:1005B8009D61002C05D102209862013898614A6338
:1005C80030BD08209862383098618A63F8E79D61E9
:1005D800002C04D10220986101389862EFE70820C6
:1005E800986138309862F0E79D61002C04D10222AE
:1005F8009A62013A9A62D2E708229A6238329A627B
:10060800D3E79D6200234B63D0E7C0460004004057
:1006180010B503780100180902D001280FD010BDC9
:100628004A788878120400021043CA781B061043DF
:10063800F022120513401843FFF774FFEFE78C7898
:10064800CA782402224349781840FFF793FFE6E767
:1006580070B500260C4D0D4C641BA410A64209D1A0
:10066800002600F019F80A4D0A4C641BA410A64293
:1006780005D170BDB300EB5898470136EEE7B300DB
:10068800EB5898470136F2E7B8060008B8060008A4
:10069800B8060008BC060008F8B5C046F8BC08BC97
:1006A8009E467047F8B5C046F8BC08BC9E467047E1
:0406B800B101000884
:0406BC0089010008A8
:04000005080004816A
:00000001FF
